{
  "_format": "hh-sol-artifact-1",
  "contractName": "PropertyNFT",
  "sourceName": "contracts/PropertyNFT.sol",
  "abi": [
    {
      "inputs": [
        {
          "internalType": "address",
          "name": "admin",
          "type": "address"
        }
      ],
      "stateMutability": "nonpayable",
      "type": "constructor"
    },
    {
      "inputs": [],
      "name": "AccessControlBadConfirmation",
      "type": "error"
    },
    {
      "inputs": [
        {
          "internalType": "address",
          "name": "account",
          "type": "address"
        },
        {
          "internalType": "bytes32",
          "name": "neededRole",
          "type": "bytes32"
        }
      ],
      "name": "AccessControlUnauthorizedAccount",
      "type": "error"
    },
    {
      "inputs": [
        {
          "internalType": "address",
          "name": "sender",
          "type": "address"
        },
        {
          "internalType": "uint256",
          "name": "tokenId",
          "type": "uint256"
        },
        {
          "internalType": "address",
          "name": "owner",
          "type": "address"
        }
      ],
      "name": "ERC721IncorrectOwner",
      "type": "error"
    },
    {
      "inputs": [
        {
          "internalType": "address",
          "name": "operator",
          "type": "address"
        },
        {
          "internalType": "uint256",
          "name": "tokenId",
          "type": "uint256"
        }
      ],
      "name": "ERC721InsufficientApproval",
      "type": "error"
    },
    {
      "inputs": [
        {
          "internalType": "address",
          "name": "approver",
          "type": "address"
        }
      ],
      "name": "ERC721InvalidApprover",
      "type": "error"
    },
    {
      "inputs": [
        {
          "internalType": "address",
          "name": "operator",
          "type": "address"
        }
      ],
      "name": "ERC721InvalidOperator",
      "type": "error"
    },
    {
      "inputs": [
        {
          "internalType": "address",
          "name": "owner",
          "type": "address"
        }
      ],
      "name": "ERC721InvalidOwner",
      "type": "error"
    },
    {
      "inputs": [
        {
          "internalType": "address",
          "name": "receiver",
          "type": "address"
        }
      ],
      "name": "ERC721InvalidReceiver",
      "type": "error"
    },
    {
      "inputs": [
        {
          "internalType": "address",
          "name": "sender",
          "type": "address"
        }
      ],
      "name": "ERC721InvalidSender",
      "type": "error"
    },
    {
      "inputs": [
        {
          "internalType": "uint256",
          "name": "tokenId",
          "type": "uint256"
        }
      ],
      "name": "ERC721NonexistentToken",
      "type": "error"
    },
    {
      "inputs": [],
      "name": "EnforcedPause",
      "type": "error"
    },
    {
      "inputs": [],
      "name": "ExpectedPause",
      "type": "error"
    },
    {
      "inputs": [],
      "name": "ReentrancyGuardReentrantCall",
      "type": "error"
    },
    {
      "anonymous": false,
      "inputs": [
        {
          "indexed": true,
          "internalType": "address",
          "name": "owner",
          "type": "address"
        },
        {
          "indexed": true,
          "internalType": "address",
          "name": "approved",
          "type": "address"
        },
        {
          "indexed": true,
          "internalType": "uint256",
          "name": "tokenId",
          "type": "uint256"
        }
      ],
      "name": "Approval",
      "type": "event"
    },
    {
      "anonymous": false,
      "inputs": [
        {
          "indexed": true,
          "internalType": "address",
          "name": "owner",
          "type": "address"
        },
        {
          "indexed": true,
          "internalType": "address",
          "name": "operator",
          "type": "address"
        },
        {
          "indexed": false,
          "internalType": "bool",
          "name": "approved",
          "type": "bool"
        }
      ],
      "name": "ApprovalForAll",
      "type": "event"
    },
    {
      "anonymous": false,
      "inputs": [
        {
          "indexed": true,
          "internalType": "address",
          "name": "wallet",
          "type": "address"
        }
      ],
      "name": "KYCVerified",
      "type": "event"
    },
    {
      "anonymous": false,
      "inputs": [
        {
          "indexed": true,
          "internalType": "uint256",
          "name": "tokenId",
          "type": "uint256"
        },
        {
          "indexed": false,
          "internalType": "address",
          "name": "from",
          "type": "address"
        },
        {
          "indexed": false,
          "internalType": "address",
          "name": "to",
          "type": "address"
        }
      ],
      "name": "OwnershipTransferInitiated",
      "type": "event"
    },
    {
      "anonymous": false,
      "inputs": [
        {
          "indexed": false,
          "internalType": "address",
          "name": "account",
          "type": "address"
        }
      ],
      "name": "Paused",
      "type": "event"
    },
    {
      "anonymous": false,
      "inputs": [
        {
          "indexed": true,
          "internalType": "uint256",
          "name": "tokenId",
          "type": "uint256"
        },
        {
          "indexed": true,
          "internalType": "address",
          "name": "oracle",
          "type": "address"
        }
      ],
      "name": "PropertyApproved",
      "type": "event"
    },
    {
      "anonymous": false,
      "inputs": [
        {
          "indexed": true,
          "internalType": "uint256",
          "name": "tokenId",
          "type": "uint256"
        },
        {
          "indexed": false,
          "internalType": "string",
          "name": "ulpin",
          "type": "string"
        },
        {
          "indexed": true,
          "internalType": "address",
          "name": "owner",
          "type": "address"
        },
        {
          "indexed": false,
          "internalType": "uint256",
          "name": "timestamp",
          "type": "uint256"
        }
      ],
      "name": "PropertyRegistered",
      "type": "event"
    },
    {
      "anonymous": false,
      "inputs": [
        {
          "indexed": true,
          "internalType": "uint256",
          "name": "tokenId",
          "type": "uint256"
        },
        {
          "indexed": true,
          "internalType": "address",
          "name": "oracle",
          "type": "address"
        },
        {
          "indexed": false,
          "internalType": "string",
          "name": "reason",
          "type": "string"
        }
      ],
      "name": "PropertyRejected",
      "type": "event"
    },
    {
      "anonymous": false,
      "inputs": [
        {
          "indexed": true,
          "internalType": "bytes32",
          "name": "role",
          "type": "bytes32"
        },
        {
          "indexed": true,
          "internalType": "bytes32",
          "name": "previousAdminRole",
          "type": "bytes32"
        },
        {
          "indexed": true,
          "internalType": "bytes32",
          "name": "newAdminRole",
          "type": "bytes32"
        }
      ],
      "name": "RoleAdminChanged",
      "type": "event"
    },
    {
      "anonymous": false,
      "inputs": [
        {
          "indexed": true,
          "internalType": "bytes32",
          "name": "role",
          "type": "bytes32"
        },
        {
          "indexed": true,
          "internalType": "address",
          "name": "account",
          "type": "address"
        },
        {
          "indexed": true,
          "internalType": "address",
          "name": "sender",
          "type": "address"
        }
      ],
      "name": "RoleGranted",
      "type": "event"
    },
    {
      "anonymous": false,
      "inputs": [
        {
          "indexed": true,
          "internalType": "bytes32",
          "name": "role",
          "type": "bytes32"
        },
        {
          "indexed": true,
          "internalType": "address",
          "name": "account",
          "type": "address"
        },
        {
          "indexed": true,
          "internalType": "address",
          "name": "sender",
          "type": "address"
        }
      ],
      "name": "RoleRevoked",
      "type": "event"
    },
    {
      "anonymous": false,
      "inputs": [
        {
          "indexed": true,
          "internalType": "address",
          "name": "from",
          "type": "address"
        },
        {
          "indexed": true,
          "internalType": "address",
          "name": "to",
          "type": "address"
        },
        {
          "indexed": true,
          "internalType": "uint256",
          "name": "tokenId",
          "type": "uint256"
        }
      ],
      "name": "Transfer",
      "type": "event"
    },
    {
      "anonymous": false,
      "inputs": [
        {
          "indexed": false,
          "internalType": "address",
          "name": "account",
          "type": "address"
        }
      ],
      "name": "Unpaused",
      "type": "event"
    },
    {
      "inputs": [],
      "name": "DEFAULT_ADMIN_ROLE",
      "outputs": [
        {
          "internalType": "bytes32",
          "name": "",
          "type": "bytes32"
        }
      ],
      "stateMutability": "view",
      "type": "function"
    },
    {
      "inputs": [],
      "name": "KYC_ROLE",
      "outputs": [
        {
          "internalType": "bytes32",
          "name": "",
          "type": "bytes32"
        }
      ],
      "stateMutability": "view",
      "type": "function"
    },
    {
      "inputs": [],
      "name": "ORACLE_ROLE",
      "outputs": [
        {
          "internalType": "bytes32",
          "name": "",
          "type": "bytes32"
        }
      ],
      "stateMutability": "view",
      "type": "function"
    },
    {
      "inputs": [
        {
          "internalType": "address",
          "name": "to",
          "type": "address"
        },
        {
          "internalType": "uint256",
          "name": "tokenId",
          "type": "uint256"
        }
      ],
      "name": "approve",
      "outputs": [],
      "stateMutability": "nonpayable",
      "type": "function"
    },
    {
      "inputs": [
        {
          "internalType": "uint256",
          "name": "tokenId",
          "type": "uint256"
        }
      ],
      "name": "approveProperty",
      "outputs": [],
      "stateMutability": "nonpayable",
      "type": "function"
    },
    {
      "inputs": [
        {
          "internalType": "address",
          "name": "owner",
          "type": "address"
        }
      ],
      "name": "balanceOf",
      "outputs": [
        {
          "internalType": "uint256",
          "name": "",
          "type": "uint256"
        }
      ],
      "stateMutability": "view",
      "type": "function"
    },
    {
      "inputs": [
        {
          "internalType": "uint256",
          "name": "tokenId",
          "type": "uint256"
        }
      ],
      "name": "getApproved",
      "outputs": [
        {
          "internalType": "address",
          "name": "",
          "type": "address"
        }
      ],
      "stateMutability": "view",
      "type": "function"
    },
    {
      "inputs": [
        {
          "internalType": "address",
          "name": "owner",
          "type": "address"
        }
      ],
      "name": "getOwnerTokens",
      "outputs": [
        {
          "internalType": "uint256[]",
          "name": "",
          "type": "uint256[]"
        }
      ],
      "stateMutability": "view",
      "type": "function"
    },
    {
      "inputs": [
        {
          "internalType": "uint256",
          "name": "tokenId",
          "type": "uint256"
        }
      ],
      "name": "getProperty",
      "outputs": [
        {
          "components": [
            {
              "internalType": "string",
              "name": "ulpin",
              "type": "string"
            },
            {
              "internalType": "string",
              "name": "ipfsDocHash",
              "type": "string"
            },
            {
              "internalType": "string",
              "name": "physicalAddress",
              "type": "string"
            },
            {
              "internalType": "uint256",
              "name": "areaSqFt",
              "type": "uint256"
            },
            {
              "internalType": "uint256",
              "name": "registeredAt",
              "type": "uint256"
            },
            {
              "internalType": "bool",
              "name": "isApproved",
              "type": "bool"
            },
            {
              "internalType": "bool",
              "name": "hasEncumbrance",
              "type": "bool"
            },
            {
              "internalType": "address",
              "name": "registeredBy",
              "type": "address"
            }
          ],
          "internalType": "struct PropertyNFT.Property",
          "name": "",
          "type": "tuple"
        }
      ],
      "stateMutability": "view",
      "type": "function"
    },
    {
      "inputs": [
        {
          "internalType": "bytes32",
          "name": "role",
          "type": "bytes32"
        }
      ],
      "name": "getRoleAdmin",
      "outputs": [
        {
          "internalType": "bytes32",
          "name": "",
          "type": "bytes32"
        }
      ],
      "stateMutability": "view",
      "type": "function"
    },
    {
      "inputs": [
        {
          "internalType": "string",
          "name": "ulpin",
          "type": "string"
        }
      ],
      "name": "getTokenByULPIN",
      "outputs": [
        {
          "internalType": "uint256",
          "name": "",
          "type": "uint256"
        }
      ],
      "stateMutability": "view",
      "type": "function"
    },
    {
      "inputs": [
        {
          "internalType": "bytes32",
          "name": "role",
          "type": "bytes32"
        },
        {
          "internalType": "address",
          "name": "account",
          "type": "address"
        }
      ],
      "name": "grantRole",
      "outputs": [],
      "stateMutability": "nonpayable",
      "type": "function"
    },
    {
      "inputs": [
        {
          "internalType": "bytes32",
          "name": "role",
          "type": "bytes32"
        },
        {
          "internalType": "address",
          "name": "account",
          "type": "address"
        }
      ],
      "name": "hasRole",
      "outputs": [
        {
          "internalType": "bool",
          "name": "",
          "type": "bool"
        }
      ],
      "stateMutability": "view",
      "type": "function"
    },
    {
      "inputs": [
        {
          "internalType": "address",
          "name": "owner",
          "type": "address"
        },
        {
          "internalType": "address",
          "name": "operator",
          "type": "address"
        }
      ],
      "name": "isApprovedForAll",
      "outputs": [
        {
          "internalType": "bool",
          "name": "",
          "type": "bool"
        }
      ],
      "stateMutability": "view",
      "type": "function"
    },
    {
      "inputs": [
        {
          "internalType": "address",
          "name": "",
          "type": "address"
        }
      ],
      "name": "kycVerified",
      "outputs": [
        {
          "internalType": "bool",
          "name": "",
          "type": "bool"
        }
      ],
      "stateMutability": "view",
      "type": "function"
    },
    {
      "inputs": [
        {
          "internalType": "string",
          "name": "ulpin",
          "type": "string"
        },
        {
          "internalType": "string",
          "name": "docHash",
          "type": "string"
        },
        {
          "internalType": "string",
          "name": "physAddress",
          "type": "string"
        },
        {
          "internalType": "uint256",
          "name": "areaSqFt",
          "type": "uint256"
        }
      ],
      "name": "mintProperty",
      "outputs": [
        {
          "internalType": "uint256",
          "name": "",
          "type": "uint256"
        }
      ],
      "stateMutability": "nonpayable",
      "type": "function"
    },
    {
      "inputs": [],
      "name": "name",
      "outputs": [
        {
          "internalType": "string",
          "name": "",
          "type": "string"
        }
      ],
      "stateMutability": "view",
      "type": "function"
    },
    {
      "inputs": [
        {
          "internalType": "uint256",
          "name": "tokenId",
          "type": "uint256"
        }
      ],
      "name": "ownerOf",
      "outputs": [
        {
          "internalType": "address",
          "name": "",
          "type": "address"
        }
      ],
      "stateMutability": "view",
      "type": "function"
    },
    {
      "inputs": [],
      "name": "pause",
      "outputs": [],
      "stateMutability": "nonpayable",
      "type": "function"
    },
    {
      "inputs": [],
      "name": "paused",
      "outputs": [
        {
          "internalType": "bool",
          "name": "",
          "type": "bool"
        }
      ],
      "stateMutability": "view",
      "type": "function"
    },
    {
      "inputs": [
        {
          "internalType": "uint256",
          "name": "",
          "type": "uint256"
        }
      ],
      "name": "properties",
      "outputs": [
        {
          "internalType": "string",
          "name": "ulpin",
          "type": "string"
        },
        {
          "internalType": "string",
          "name": "ipfsDocHash",
          "type": "string"
        },
        {
          "internalType": "string",
          "name": "physicalAddress",
          "type": "string"
        },
        {
          "internalType": "uint256",
          "name": "areaSqFt",
          "type": "uint256"
        },
        {
          "internalType": "uint256",
          "name": "registeredAt",
          "type": "uint256"
        },
        {
          "internalType": "bool",
          "name": "isApproved",
          "type": "bool"
        },
        {
          "internalType": "bool",
          "name": "hasEncumbrance",
          "type": "bool"
        },
        {
          "internalType": "address",
          "name": "registeredBy",
          "type": "address"
        }
      ],
      "stateMutability": "view",
      "type": "function"
    },
    {
      "inputs": [
        {
          "internalType": "uint256",
          "name": "tokenId",
          "type": "uint256"
        },
        {
          "internalType": "string",
          "name": "reason",
          "type": "string"
        }
      ],
      "name": "rejectProperty",
      "outputs": [],
      "stateMutability": "nonpayable",
      "type": "function"
    },
    {
      "inputs": [
        {
          "internalType": "bytes32",
          "name": "role",
          "type": "bytes32"
        },
        {
          "internalType": "address",
          "name": "callerConfirmation",
          "type": "address"
        }
      ],
      "name": "renounceRole",
      "outputs": [],
      "stateMutability": "nonpayable",
      "type": "function"
    },
    {
      "inputs": [
        {
          "internalType": "bytes32",
          "name": "role",
          "type": "bytes32"
        },
        {
          "internalType": "address",
          "name": "account",
          "type": "address"
        }
      ],
      "name": "revokeRole",
      "outputs": [],
      "stateMutability": "nonpayable",
      "type": "function"
    },
    {
      "inputs": [
        {
          "internalType": "address",
          "name": "from",
          "type": "address"
        },
        {
          "internalType": "address",
          "name": "to",
          "type": "address"
        },
        {
          "internalType": "uint256",
          "name": "tokenId",
          "type": "uint256"
        }
      ],
      "name": "safeTransferFrom",
      "outputs": [],
      "stateMutability": "nonpayable",
      "type": "function"
    },
    {
      "inputs": [
        {
          "internalType": "address",
          "name": "from",
          "type": "address"
        },
        {
          "internalType": "address",
          "name": "to",
          "type": "address"
        },
        {
          "internalType": "uint256",
          "name": "tokenId",
          "type": "uint256"
        },
        {
          "internalType": "bytes",
          "name": "data",
          "type": "bytes"
        }
      ],
      "name": "safeTransferFrom",
      "outputs": [],
      "stateMutability": "nonpayable",
      "type": "function"
    },
    {
      "inputs": [
        {
          "internalType": "address",
          "name": "operator",
          "type": "address"
        },
        {
          "internalType": "bool",
          "name": "approved",
          "type": "bool"
        }
      ],
      "name": "setApprovalForAll",
      "outputs": [],
      "stateMutability": "nonpayable",
      "type": "function"
    },
    {
      "inputs": [
        {
          "internalType": "uint256",
          "name": "tokenId",
          "type": "uint256"
        },
        {
          "internalType": "bool",
          "name": "status",
          "type": "bool"
        }
      ],
      "name": "setEncumbrance",
      "outputs": [],
      "stateMutability": "nonpayable",
      "type": "function"
    },
    {
      "inputs": [
        {
          "internalType": "bytes4",
          "name": "interfaceId",
          "type": "bytes4"
        }
      ],
      "name": "supportsInterface",
      "outputs": [
        {
          "internalType": "bool",
          "name": "",
          "type": "bool"
        }
      ],
      "stateMutability": "view",
      "type": "function"
    },
    {
      "inputs": [],
      "name": "symbol",
      "outputs": [
        {
          "internalType": "string",
          "name": "",
          "type": "string"
        }
      ],
      "stateMutability": "view",
      "type": "function"
    },
    {
      "inputs": [
        {
          "internalType": "uint256",
          "name": "tokenId",
          "type": "uint256"
        }
      ],
      "name": "tokenURI",
      "outputs": [
        {
          "internalType": "string",
          "name": "",
          "type": "string"
        }
      ],
      "stateMutability": "view",
      "type": "function"
    },
    {
      "inputs": [
        {
          "internalType": "address",
          "name": "from",
          "type": "address"
        },
        {
          "internalType": "address",
          "name": "to",
          "type": "address"
        },
        {
          "internalType": "uint256",
          "name": "tokenId",
          "type": "uint256"
        }
      ],
      "name": "transferFrom",
      "outputs": [],
      "stateMutability": "nonpayable",
      "type": "function"
    },
    {
      "inputs": [
        {
          "internalType": "uint256",
          "name": "tokenId",
          "type": "uint256"
        },
        {
          "internalType": "address",
          "name": "to",
          "type": "address"
        }
      ],
      "name": "transferProperty",
      "outputs": [],
      "stateMutability": "nonpayable",
      "type": "function"
    },
    {
      "inputs": [
        {
          "internalType": "string",
          "name": "",
          "type": "string"
        }
      ],
      "name": "ulpinExists",
      "outputs": [
        {
          "internalType": "bool",
          "name": "",
          "type": "bool"
        }
      ],
      "stateMutability": "view",
      "type": "function"
    },
    {
      "inputs": [
        {
          "internalType": "string",
          "name": "",
          "type": "string"
        }
      ],
      "name": "ulpinToToken",
      "outputs": [
        {
          "internalType": "uint256",
          "name": "",
          "type": "uint256"
        }
      ],
      "stateMutability": "view",
      "type": "function"
    },
    {
      "inputs": [],
      "name": "unpause",
      "outputs": [],
      "stateMutability": "nonpayable",
      "type": "function"
    },
    {
      "inputs": [
        {
          "internalType": "address",
          "name": "wallet",
          "type": "address"
        }
      ],
      "name": "verifyKYC",
      "outputs": [],
      "stateMutability": "nonpayable",
      "type": "function"
    }
  ],
  "bytecode": "0x60806040523480156200001157600080fd5b5060405162002dd438038062002dd48339810160408190526200003491620001d0565b6040518060400160405280601281526020017150726f70436861696e2050726f706572747960701b81525060405180604001604052806004815260200163050524f560e41b81525081600090816200008d9190620002a7565b5060016200009c8282620002a7565b50506007805460ff19169055506001600855620000bb6000826200011d565b50620000e87f68e79a7bf1e0bc45d0a330c573bc367f9cf464fd326078812f301165fbda4ef1826200011d565b50620001157fdb11624602202c396fa347735a55e345a3aeb3e60f8885e1a71f1bf8d5886db7826200011d565b505062000373565b60008281526006602090815260408083206001600160a01b038516845290915281205460ff16620001c65760008381526006602090815260408083206001600160a01b03861684529091529020805460ff191660011790556200017d3390565b6001600160a01b0316826001600160a01b0316847f2f8788117e7eff1d82e926ec794901d17c78024a50270940304540a733656f0d60405160405180910390a4506001620001ca565b5060005b92915050565b600060208284031215620001e357600080fd5b81516001600160a01b0381168114620001fb57600080fd5b9392505050565b634e487b7160e01b600052604160045260246000fd5b600181811c908216806200022d57607f821691505b6020821081036200024e57634e487b7160e01b600052602260045260246000fd5b50919050565b601f821115620002a257600081815260208120601f850160051c810160208610156200027d5750805b601f850160051c820191505b818110156200029e5782815560010162000289565b5050505b505050565b81516001600160401b03811115620002c357620002c362000202565b620002db81620002d4845462000218565b8462000254565b602080601f831160018114620003135760008415620002fa5750858301515b600019600386901b1c1916600185901b1785556200029e565b600085815260208120601f198616915b82811015620003445788860151825594840194600190910190840162000323565b5085821015620003635787850151600019600388901b60f8161c191681555b5050505050600190811b01905550565b612a5180620003836000396000f3fe608060405234801561001057600080fd5b50600436106102275760003560e01c806370a0823111610130578063b7f2b655116100b8578063e985e9c51161007c578063e985e9c514610506578063e9b66f8c14610519578063f7b108081461052c578063f9c8dec314610553578063ff3562371461057a57600080fd5b8063b7f2b6551461049a578063b88d4fde146104ad578063c87b56dd146104c0578063d547741f146104d3578063d63d4af0146104e657600080fd5b8063a217fddf116100ff578063a217fddf1461041b578063a22cb46514610423578063a45b63a814610436578063a5410a6614610449578063a68a12311461046c57600080fd5b806370a08231146103e55780638456cb59146103f857806391d148541461040057806395d89b411461041357600080fd5b806332665ffb116101b357806342842e0e1161018257806342842e0e146103765780635a8f5ab5146103895780635c975abb1461039c5780636352211e146103a75780636ebba828146103ba57600080fd5b806332665ffb1461032857806336568abe1461034857806338d160111461035b5780633f4ba83a1461036e57600080fd5b8063095ea7b3116101fa578063095ea7b3146102b75780630ce89b46146102cc57806323b872dd146102df578063248a9ca3146102f25780632f2ff15d1461031557600080fd5b806301ffc9a71461022c57806306fdde031461025457806307e2cea514610269578063081812fc1461028c575b600080fd5b61023f61023a3660046121cb565b61058d565b60405190151581526020015b60405180910390f35b61025c61059e565b60405161024b9190612238565b61027e6000805160206129fc83398151915281565b60405190815260200161024b565b61029f61029a36600461224b565b610630565b6040516001600160a01b03909116815260200161024b565b6102ca6102c5366004612280565b610659565b005b6102ca6102da366004612356565b610668565b6102ca6102ed36600461239d565b61070d565b61027e61030036600461224b565b60009081526006602052604090206001015490565b6102ca6103233660046123d9565b610798565b61033b61033636600461224b565b6107bd565b60405161024b9190612405565b6102ca6103563660046123d9565b610a62565b6102ca6103693660046124b6565b610a9a565b6102ca610b11565b6102ca61038436600461239d565b610b27565b61027e6103973660046124d1565b610b42565b60075460ff1661023f565b61029f6103b536600461224b565b610bcb565b61027e6103c83660046124d1565b8051602081830181018051600b8252928201919093012091525481565b61027e6103f33660046124b6565b610bd6565b6102ca610c1e565b61023f61040e3660046123d9565b610c31565b61025c610c5c565b61027e600081565b6102ca610431366004612516565b610c6b565b6102ca610444366004612540565b610c76565b61023f6104573660046124b6565b600d6020526000908152604090205460ff1681565b61023f61047a3660046124d1565b8051602081830181018051600c8252928201919093012091525460ff1681565b61027e6104a8366004612563565b610ced565b6102ca6104bb3660046125f3565b61101b565b61025c6104ce36600461224b565b611032565b6102ca6104e13660046123d9565b6110a7565b6104f96104f43660046124b6565b6110cc565b60405161024b919061266f565b61023f6105143660046126b3565b611138565b6102ca61052736600461224b565b611166565b61053f61053a36600461224b565b611251565b60405161024b9897969594939291906126dd565b61027e7fdb11624602202c396fa347735a55e345a3aeb3e60f8885e1a71f1bf8d5886db781565b6102ca6105883660046123d9565b61143c565b600061059882611674565b92915050565b6060600080546105ad90612750565b80601f01602080910402602001604051908101604052809291908181526020018280546105d990612750565b80156106265780601f106105fb57610100808354040283529160200191610626565b820191906000526020600020905b81548152906001019060200180831161060957829003601f168201915b5050505050905090565b600061063b82611699565b506000828152600460205260409020546001600160a01b0316610598565b6106648282336116d2565b5050565b6000805160206129fc833981519152610680816116df565b6000838152600260205260409020546001600160a01b03166106bd5760405162461bcd60e51b81526004016106b49061278a565b60405180910390fd5b6106c6836116e9565b336001600160a01b0316837f62e21bc06fe4c9912713b607f7987fbef96e023eb9e720bfb5e6d3d4673eaceb846040516107009190612238565b60405180910390a3505050565b6001600160a01b03821661073757604051633250574960e11b8152600060048201526024016106b4565b6000610744838333611724565b9050836001600160a01b0316816001600160a01b031614610792576040516364283d7b60e01b81526001600160a01b03808616600483015260248201849052821660448201526064016106b4565b50505050565b6000828152600660205260409020600101546107b3816116df565b610792838361181d565b610812604051806101000160405280606081526020016060815260200160608152602001600081526020016000815260200160001515815260200160001515815260200160006001600160a01b031681525090565b6000828152600260205260409020546001600160a01b03166108465760405162461bcd60e51b81526004016106b49061278a565b6000828152600a6020526040908190208151610100810190925280548290829061086f90612750565b80601f016020809104026020016040519081016040528092919081815260200182805461089b90612750565b80156108e85780601f106108bd576101008083540402835291602001916108e8565b820191906000526020600020905b8154815290600101906020018083116108cb57829003601f168201915b5050505050815260200160018201805461090190612750565b80601f016020809104026020016040519081016040528092919081815260200182805461092d90612750565b801561097a5780601f1061094f5761010080835404028352916020019161097a565b820191906000526020600020905b81548152906001019060200180831161095d57829003601f168201915b5050505050815260200160028201805461099390612750565b80601f01602080910402602001604051908101604052809291908181526020018280546109bf90612750565b8015610a0c5780601f106109e157610100808354040283529160200191610a0c565b820191906000526020600020905b8154815290600101906020018083116109ef57829003601f168201915b5050509183525050600382015460208201526004820154604082015260059091015460ff80821615156060840152610100820416151560808301526201000090046001600160a01b031660a09091015292915050565b6001600160a01b0381163314610a8b5760405163334bd91960e11b815260040160405180910390fd5b610a9582826118b1565b505050565b7fdb11624602202c396fa347735a55e345a3aeb3e60f8885e1a71f1bf8d5886db7610ac4816116df565b6001600160a01b0382166000818152600d6020526040808220805460ff19166001179055517f65c84ee842eafc291d1272a6e3d10f8c454c4288e63f5db3f7be2b3012f321a99190a25050565b6000610b1c816116df565b610b2461191e565b50565b610a958383836040518060200160405280600081525061101b565b6000600c82604051610b5491906127b8565b9081526040519081900360200190205460ff16610ba55760405162461bcd60e51b815260206004820152600f60248201526e1553141253881b9bdd08199bdd5b99608a1b60448201526064016106b4565b600b82604051610bb591906127b8565b9081526020016040518091039020549050919050565b600061059882611699565b60006001600160a01b038216610c02576040516322718ad960e21b8152600060048201526024016106b4565b506001600160a01b031660009081526003602052604090205490565b6000610c29816116df565b610b24611970565b60009182526006602090815260408084206001600160a01b0393909316845291905290205460ff1690565b6060600180546105ad90612750565b6106643383836119ad565b6000805160206129fc833981519152610c8e816116df565b6000838152600260205260409020546001600160a01b0316610cc25760405162461bcd60e51b81526004016106b49061278a565b506000918252600a602052604090912060050180549115156101000261ff0019909216919091179055565b6000610cf7611a44565b610cff611a6a565b336000908152600d602052604090205460ff16610d515760405162461bcd60e51b815260206004820152601060248201526f12d650c81b9bdd081d995c9a599a595960821b60448201526064016106b4565b600c85604051610d6191906127b8565b9081526040519081900360200190205460ff1615610dc15760405162461bcd60e51b815260206004820152601860248201527f554c50494e20616c72656164792072656769737465726564000000000000000060448201526064016106b4565b6000855111610e035760405162461bcd60e51b815260206004820152600e60248201526d1553141253881c995c5d5a5c995960921b60448201526064016106b4565b60008211610e425760405162461bcd60e51b815260206004820152600c60248201526b496e76616c6964206172656160a01b60448201526064016106b4565b6009805460009182610e53836127ea565b919050559050610e633382611a94565b6040805161010081018252878152602080820188905281830187905260608201869052426080830152600060a0830181905260c083018190523360e0840152848152600a9091529190912081518190610ebc9082612851565b5060208201516001820190610ed19082612851565b5060408201516002820190610ee69082612851565b50606082015160038201556080820151600482015560a08201516005909101805460c084015160e0909401516001600160a01b0316620100000262010000600160b01b03199415156101000261ff00199415159490941661ffff199092169190911792909217929092161790556040518190600b90610f669089906127b8565b9081526020016040518091039020819055506001600c87604051610f8a91906127b8565b9081526040805160209281900383018120805460ff191694151594909417909355336000818152600e84529182208054600181018255908352929091209091018390559082907f4e92d26db8e259af09946712243887f39ffe9cdfaa7b80fecb2fefc66cd9fabb90610fff908a904290612911565b60405180910390a390506110136001600855565b949350505050565b61102684848461070d565b61079284848484611aae565b606061103d82611699565b50600061105560408051602081019091526000815290565b9050600081511161107557604051806020016040528060008152506110a0565b8061107f84611bd7565b604051602001611090929190612933565b6040516020818303038152906040525b9392505050565b6000828152600660205260409020600101546110c2816116df565b61079283836118b1565b6001600160a01b0381166000908152600e602090815260409182902080548351818402810184019094528084526060939283018282801561112c57602002820191906000526020600020905b815481526020019060010190808311611118575b50505050509050919050565b6001600160a01b03918216600090815260056020908152604080832093909416825291909152205460ff1690565b6000805160206129fc83398151915261117e816116df565b6000828152600260205260409020546001600160a01b03166111b25760405162461bcd60e51b81526004016106b49061278a565b6000828152600a602052604090206005015460ff16156112075760405162461bcd60e51b815260206004820152601060248201526f105b1c9958591e48185c1c1c9bdd995960821b60448201526064016106b4565b6000828152600a6020526040808220600501805460ff1916600117905551339184917fdc4a9e931ddb4ea0e6114226f2a3b598ce4b38bc6976643e3e4e7e7cfd1e16519190a35050565b600a6020526000908152604090208054819061126c90612750565b80601f016020809104026020016040519081016040528092919081815260200182805461129890612750565b80156112e55780601f106112ba576101008083540402835291602001916112e5565b820191906000526020600020905b8154815290600101906020018083116112c857829003601f168201915b5050505050908060010180546112fa90612750565b80601f016020809104026020016040519081016040528092919081815260200182805461132690612750565b80156113735780601f1061134857610100808354040283529160200191611373565b820191906000526020600020905b81548152906001019060200180831161135657829003601f168201915b50505050509080600201805461138890612750565b80601f01602080910402602001604051908101604052809291908181526020018280546113b490612750565b80156114015780601f106113d657610100808354040283529160200191611401565b820191906000526020600020905b8154815290600101906020018083116113e457829003601f168201915b505050600384015460048501546005909501549394909390925060ff8082169250610100820416906001600160a01b03620100009091041688565b611444611a6a565b61144c611a44565b3361145683610bcb565b6001600160a01b0316146114985760405162461bcd60e51b81526020600482015260096024820152682737ba1037bbb732b960b91b60448201526064016106b4565b6000828152600a602052604090206005015460ff166114e85760405162461bcd60e51b815260206004820152600c60248201526b139bdd08185c1c1c9bdd995960a21b60448201526064016106b4565b6000828152600a6020526040902060050154610100900460ff16156115415760405162461bcd60e51b815260206004820152600f60248201526e48617320656e63756d6272616e636560881b60448201526064016106b4565b6001600160a01b0381166000908152600d602052604090205460ff166115a25760405162461bcd60e51b8152602060048201526016602482015275109d5e595c881b9bdd0812d650c81d995c9a599a595960521b60448201526064016106b4565b6001600160a01b0381166115ec5760405162461bcd60e51b8152602060048201526011602482015270125b9d985b1a59081c9958da5c1a595b9d607a1b60448201526064016106b4565b6115f7338284611c6a565b6116013383611d1a565b6001600160a01b0381166000818152600e6020908152604080832080546001810182559084529282902090920185905581513381529081019290925283917f0e7ea6659182cc6097b5040d8639ad7e2c291492bf2da7163ac290cdfb1b3121910160405180910390a26106646001600855565b60006001600160e01b03198216637965db0b60e01b1480610598575061059882611de8565b6000818152600260205260408120546001600160a01b03168061059857604051637e27328960e01b8152600481018490526024016106b4565b610a958383836001611e38565b610b248133611f3e565b60006116f86000836000611724565b90506001600160a01b03811661066457604051637e27328960e01b8152600481018390526024016106b4565b6000828152600260205260408120546001600160a01b039081169083161561175157611751818486611f77565b6001600160a01b0381161561178f5761176e600085600080611e38565b6001600160a01b038116600090815260036020526040902080546000190190555b6001600160a01b038516156117be576001600160a01b0385166000908152600360205260409020805460010190555b60008481526002602052604080822080546001600160a01b0319166001600160a01b0389811691821790925591518793918516917fddf252ad1be2c89b69c2b068fc378daa952ba7f163c4a11628f55a4df523b3ef91a4949350505050565b60006118298383610c31565b6118a95760008381526006602090815260408083206001600160a01b03861684529091529020805460ff191660011790556118613390565b6001600160a01b0316826001600160a01b0316847f2f8788117e7eff1d82e926ec794901d17c78024a50270940304540a733656f0d60405160405180910390a4506001610598565b506000610598565b60006118bd8383610c31565b156118a95760008381526006602090815260408083206001600160a01b0386168085529252808320805460ff1916905551339286917ff6391f5c32d9c69d2a47ea670b442974b53935d1edc7fd64eb21e047a839171b9190a4506001610598565b611926611fdb565b6007805460ff191690557f5db9ee0a495bf2e6ff9c91a7834c1ba4fdd244a5e8aa4e537bd38aeae4b073aa335b6040516001600160a01b03909116815260200160405180910390a1565b611978611a44565b6007805460ff191660011790557f62e78cea01bee320cd4e420270b5ea74000d11b0c9f74754ebdbfc544b05a2586119533390565b6001600160a01b0382166119df57604051630b61174360e31b81526001600160a01b03831660048201526024016106b4565b6001600160a01b03838116600081815260056020908152604080832094871680845294825291829020805460ff191686151590811790915591519182527f17307eab39ab6107e8899845ad3d59bd9653f200f220920489ca2b5937696c319101610700565b60075460ff1615611a685760405163d93c066560e01b815260040160405180910390fd5b565b600260085403611a8d57604051633ee5aeb560e01b815260040160405180910390fd5b6002600855565b610664828260405180602001604052806000815250611ffe565b6001600160a01b0383163b1561079257604051630a85bd0160e11b81526001600160a01b0384169063150b7a0290611af0903390889087908790600401612962565b6020604051808303816000875af1925050508015611b2b575060408051601f3d908101601f19168201909252611b289181019061299f565b60015b611b94573d808015611b59576040519150601f19603f3d011682016040523d82523d6000602084013e611b5e565b606091505b508051600003611b8c57604051633250574960e11b81526001600160a01b03851660048201526024016106b4565b805181602001fd5b6001600160e01b03198116630a85bd0160e11b14611bd057604051633250574960e11b81526001600160a01b03851660048201526024016106b4565b5050505050565b60606000611be483612015565b600101905060008167ffffffffffffffff811115611c0457611c046122aa565b6040519080825280601f01601f191660200182016040528015611c2e576020820181803683370190505b5090508181016020015b600019016f181899199a1a9b1b9c1cb0b131b232b360811b600a86061a8153600a8504945084611c3857509392505050565b6001600160a01b038216611c9457604051633250574960e11b8152600060048201526024016106b4565b6000611ca283836000611724565b90506001600160a01b038116611cce57604051637e27328960e01b8152600481018390526024016106b4565b836001600160a01b0316816001600160a01b031614610792576040516364283d7b60e01b81526001600160a01b03808616600483015260248201849052821660448201526064016106b4565b6001600160a01b0382166000908152600e60205260408120905b81548110156107925782828281548110611d5057611d506129bc565b906000526020600020015403611dd65781548290611d70906001906129d2565b81548110611d8057611d806129bc565b9060005260206000200154828281548110611d9d57611d9d6129bc565b906000526020600020018190555081805480611dbb57611dbb6129e5565b60019003818190600052602060002001600090559055610792565b80611de0816127ea565b915050611d34565b60006001600160e01b031982166380ac58cd60e01b1480611e1957506001600160e01b03198216635b5e139f60e01b145b8061059857506301ffc9a760e01b6001600160e01b0319831614610598565b8080611e4c57506001600160a01b03821615155b15611f0e576000611e5c84611699565b90506001600160a01b03831615801590611e885750826001600160a01b0316816001600160a01b031614155b8015611e9b5750611e998184611138565b155b15611ec45760405163a9fbf51f60e01b81526001600160a01b03841660048201526024016106b4565b8115611f0c5783856001600160a01b0316826001600160a01b03167f8c5be1e5ebec7d5bd14f71427d1e84f3dd0314c0f7b2291e5b200ac8c7c3b92560405160405180910390a45b505b5050600090815260046020526040902080546001600160a01b0319166001600160a01b0392909216919091179055565b611f488282610c31565b6106645760405163e2517d3f60e01b81526001600160a01b0382166004820152602481018390526044016106b4565b611f828383836120ed565b610a95576001600160a01b038316611fb057604051637e27328960e01b8152600481018290526024016106b4565b60405163177e802f60e01b81526001600160a01b0383166004820152602481018290526044016106b4565b60075460ff16611a6857604051638dfc202b60e01b815260040160405180910390fd5b6120088383612150565b610a956000848484611aae565b60008072184f03e93ff9f4daa797ed6e38ed64bf6a1f0160401b83106120545772184f03e93ff9f4daa797ed6e38ed64bf6a1f0160401b830492506040015b6d04ee2d6d415b85acef81000000008310612080576d04ee2d6d415b85acef8100000000830492506020015b662386f26fc10000831061209e57662386f26fc10000830492506010015b6305f5e10083106120b6576305f5e100830492506008015b61271083106120ca57612710830492506004015b606483106120dc576064830492506002015b600a83106105985760010192915050565b60006001600160a01b038316158015906110135750826001600160a01b0316846001600160a01b0316148061212757506121278484611138565b806110135750506000908152600460205260409020546001600160a01b03908116911614919050565b6001600160a01b03821661217a57604051633250574960e11b8152600060048201526024016106b4565b600061218883836000611724565b90506001600160a01b03811615610a95576040516339e3563760e11b8152600060048201526024016106b4565b6001600160e01b031981168114610b2457600080fd5b6000602082840312156121dd57600080fd5b81356110a0816121b5565b60005b838110156122035781810151838201526020016121eb565b50506000910152565b600081518084526122248160208601602086016121e8565b601f01601f19169290920160200192915050565b6020815260006110a0602083018461220c565b60006020828403121561225d57600080fd5b5035919050565b80356001600160a01b038116811461227b57600080fd5b919050565b6000806040838503121561229357600080fd5b61229c83612264565b946020939093013593505050565b634e487b7160e01b600052604160045260246000fd5b600067ffffffffffffffff808411156122db576122db6122aa565b604051601f8501601f19908116603f01168101908282118183101715612303576123036122aa565b8160405280935085815286868601111561231c57600080fd5b858560208301376000602087830101525050509392505050565b600082601f83011261234757600080fd5b6110a0838335602085016122c0565b6000806040838503121561236957600080fd5b82359150602083013567ffffffffffffffff81111561238757600080fd5b61239385828601612336565b9150509250929050565b6000806000606084860312156123b257600080fd5b6123bb84612264565b92506123c960208501612264565b9150604084013590509250925092565b600080604083850312156123ec57600080fd5b823591506123fc60208401612264565b90509250929050565b602081526000825161010080602085015261242461012085018361220c565b91506020850151601f1980868503016040870152612442848361220c565b9350604087015191508086850301606087015250612460838261220c565b92505060608501516080850152608085015160a085015260a085015161248a60c086018215159052565b5060c085015180151560e08601525060e08501516001600160a01b038116858301525090949350505050565b6000602082840312156124c857600080fd5b6110a082612264565b6000602082840312156124e357600080fd5b813567ffffffffffffffff8111156124fa57600080fd5b61101384828501612336565b8035801515811461227b57600080fd5b6000806040838503121561252957600080fd5b61253283612264565b91506123fc60208401612506565b6000806040838503121561255357600080fd5b823591506123fc60208401612506565b6000806000806080858703121561257957600080fd5b843567ffffffffffffffff8082111561259157600080fd5b61259d88838901612336565b955060208701359150808211156125b357600080fd5b6125bf88838901612336565b945060408701359150808211156125d557600080fd5b506125e287828801612336565b949793965093946060013593505050565b6000806000806080858703121561260957600080fd5b61261285612264565b935061262060208601612264565b925060408501359150606085013567ffffffffffffffff81111561264357600080fd5b8501601f8101871361265457600080fd5b612663878235602084016122c0565b91505092959194509250565b6020808252825182820181905260009190848201906040850190845b818110156126a75783518352928401929184019160010161268b565b50909695505050505050565b600080604083850312156126c657600080fd5b6126cf83612264565b91506123fc60208401612264565b60006101008083526126f18184018c61220c565b90508281036020840152612705818b61220c565b90508281036040840152612719818a61220c565b60608401989098525050608081019490945291151560a0840152151560c08301526001600160a01b031660e0909101529392505050565b600181811c9082168061276457607f821691505b60208210810361278457634e487b7160e01b600052602260045260246000fd5b50919050565b602080825260149082015273151bdad95b88191bd95cc81b9bdd08195e1a5cdd60621b604082015260600190565b600082516127ca8184602087016121e8565b9190910192915050565b634e487b7160e01b600052601160045260246000fd5b6000600182016127fc576127fc6127d4565b5060010190565b601f821115610a9557600081815260208120601f850160051c8101602086101561282a5750805b601f850160051c820191505b8181101561284957828155600101612836565b505050505050565b815167ffffffffffffffff81111561286b5761286b6122aa565b61287f816128798454612750565b84612803565b602080601f8311600181146128b4576000841561289c5750858301515b600019600386901b1c1916600185901b178555612849565b600085815260208120601f198616915b828110156128e3578886015182559484019460019091019084016128c4565b50858210156129015787850151600019600388901b60f8161c191681555b5050505050600190811b01905550565b604081526000612924604083018561220c565b90508260208301529392505050565b600083516129458184602088016121e8565b8351908301906129598183602088016121e8565b01949350505050565b6001600160a01b03858116825284166020820152604081018390526080606082018190526000906129959083018461220c565b9695505050505050565b6000602082840312156129b157600080fd5b81516110a0816121b5565b634e487b7160e01b600052603260045260246000fd5b81810381811115610598576105986127d4565b634e487b7160e01b600052603160045260246000fdfe68e79a7bf1e0bc45d0a330c573bc367f9cf464fd326078812f301165fbda4ef1a2646970667358221220403db31c58d2ca278036071d2c701423d43871649b7200cdfc5a1dc8d4f6f8b064736f6c63430008140033",
  "linkReferences": {},
  "deployedLinkReferences": {}
}